:020000041000EA
:1000000000B5324B212058609868022188439860DF
:10001000D860186158612E4B002199600221596106
:100020000121F02299502B49196001219960352056
:1000300000F044F80222904214D00621196600F024
:1000400034F8196E01211966002018661A6600F04E
:100050002CF8196E196E196E052000F02FF8012189
:100060000842F9D1002199601B49196000215960AB
:100070001A491B48016001219960EB211966A021F2
:10008000196600F012F800219960164914480160C1
:100090000121996001BC002800D000471248134993
:1000A000086003C880F30888084703B5996A0420EC
:1000B0000142FBD001200142F8D103BD02B5186610
:1000C0001866FFF7F2FF186E186E02BD00000240BE
:1000D000000000180000070000035F00212200005C
:1000E000F4000018222000A00001001008ED00E03C
:1000F00000000000000000000000000074B24E7A12
:1001000000200420F7010010C3010010C5010010F9
:10011000C1010010C1010010C1010010C101001097
:10012000C1010010C1010010C1010010C701001081
:10013000C1010010C1010010C9010010CB01001065
:10014000CD010010CD010010CD010010CD01001037
:10015000CD010010CD010010CD010010CD01001027
:10016000CD010010CD010010CD010010CD01001017
:10017000CD010010CD010010CD010010CD01001007
:10018000CD010010CD010010CD010010CD010010F7
:10019000CD010010CD010010CD010010CD010010E7
:1001A000CD010010CD010010CD010010CD010010D7
:1001B000CD010010CD010010CD010010CD010010C7
:1001C00000BE00BE00BE00BE00BE00BE00F04BF888
:1001D000103800BEF2EB8871E0200010FC20001007
:1001E0003402001090A31AE700202149086006C8D5
:1001F00081F3088810471F48006800282FD10DA4FC
:100200000ECC002902D000F012F8F9E71A491B4A77
:10021000002000E001C19142FCD1194988471949E9
:1002200088471949884700BEFDE701C901C29A42C3
:10023000FBD37047FC200010C00000208C0200207F
:10024000C82200100000042000000420C822001072
:1002500000100420001004200000000070470B482C
:1002600001F064FC0047EFF30580C0B27047000066
:1002700008ED00E0000000D0900200205C060020A5
:10028000CD1200105D030010CD1300105756000072
:1002900006005250ABB36053B82000100600525015
:1002A000861C0302C8200010060052505422A29D52
:1002B000D020001005005250DE65F468C8220010FE
:1002C000F8B5C0460448054B10B5834203D0044B33
:1002D000002B00D0984710BD8C0200208C0200201B
:1002E0000000000006480749091A8910CB0F591869
:1002F00010B5491003D0044B002B00D0984710BD17
:100300008C0200208C0200200000000010B5074C79
:100310002378002B09D1FFF7D5FF054B002B02D026
:10032000044800E000BF0123237010BD90030020AB
:100330000000000038200010054B10B5002B03D042
:100340000449054800E000BFFFF7CCFF10BDC046E0
:1003500000000000940300203820001070B58025B4
:10036000D024AD042E001920240600F013F8656295
:100370006661C82000F048FBA561C82000F044FB7E
:100380006561642000F040FBA561642000F03CFB47
:10039000EEE7C0460123D0228340120693629361A8
:1003A000094A83009446402263441968C0004A40C9
:1003B000C02111408022520113431960034B9C4617
:1003C000052360444360704704C001400040014081
:1003D000F8B5EFF3108772B60D4E3368002BFCD0E2
:1003E000BFF35F8F0725CB08C01801230D40AB403A
:1003F0001D000478254007D123430370BFF35F8FAE
:10040000356087F31088F8BD100000F0E1FFC046AA
:100410002C0100D0024B18688007C00F7047C046FF
:1004200000C006400021044B044ABFF35F8F02C3A3
:100430009342FAD17047C046000100D0800100D03D
:10044000044A1078431CDBB2172B00D91023137019
:100450007047C046D801002083680B4810B5844619
:1004600061446244090112019A18591854684B6892
:1004700001209C4201D802D00020C0B210BD1268F9
:100480000B689A42F9D8F7E7FFFFFF0F0A4B19688C
:10049000EFF3108072B60A68002AFCD0BFF35F8FBA
:1004A0001B68BFF35F8F00221A6080F3108840BF83
:1004B000002000217047C04640040020F8B5574690
:1004C0004E464546DE46E0B51F000CAB1D780DAB31
:1004D0001B7881469A46036816009846002D3BD14A
:1004E000987B002832D042464546440012682418C2
:1004F000033C121951780300A973002900D1E97354
:100500000021050091705170117029E0D318141961
:100510009D702278002A00D05A705B4623704346B3
:100520005D734B463200187D3B0000F04FFB041E0C
:1005300007D05346002B04D14B462900186800F021
:1005400025FD0E9B002B44D028001C703CBC90461F
:100550009946A246AB46F8BD2B006C006419033CDB
:100560001D4A94464A469268634494461B010A9A7F
:1005700063449A600B9A1E605F60DA604346002213
:100580001B681B199A705A701A7043465B7B9B4616
:10059000002BC4D043462A00986859465B689847A8
:1005A0005B4642465B005B44033B12680028ADD0CB
:1005B000D31814195A46A2701A78002A07D11D7050
:1005C0005A46434628005A73AB45BFD1A9E762702B
:1005D000F5E72800BAE7C046FFFFFF0FF0B5DE469B
:1005E000454657464E46724B8200E0B5D55800232B
:1005F0008DB00B909B4627E0069A079B110019438C
:1006000003D02B69002B00D093E02B68DA7B002A03
:1006100007D051008A1819688C4649466244033A4B
:1006200051704A46DA73EA684B469446013B63448C
:100630001A7801321A705B462B616B68BFF35F8FCB
:100640005A461A6084F3108800F05EFA6A68EFF385
:10065000108472B61368002BFCD0BFF35F8F2B6839
:100660009C465B7B9946002B5BD0AA68514B904619
:100670004B441B01984443461A685B6816001F00F0
:10068000361A8F41002F6EDD0B9800F09FFA002282
:10069000002300270026089209936B68BFF35F8F41
:1006A0005A461A6084F31088002E76D053461802FA
:1006B0004B4639001843B0476A6806900791EFF33C
:1006C000108472B61368002BFCD0BFF35F8F079BBA
:1006D000002B91DA2B69002B97D006980799089A7E
:1006E000099B121A8B410898099906920793079A59
:1006F000914203D807D1069A904204D9012252426E
:10070000D317069207935B46012104934B4603914E
:10071000029301970096069A079B2800FFF7CEFEEA
:1007200089E7002200230027089209930026002071
:10073000B3E700F0E9F9069A079B12184B4199427A
:1007400002D804D1904202D901225242D31759460D
:1007500004910121039149460197029100962800D6
:10076000FFF7ACFE67E7002F01D1002E8CD10021EE
:10077000604600F05FFB43461A685B680892099385
:1007800043469E68DF68EB684B44013B1B789A4602
:100790001B021843286100207FE7002800D053E7A0
:1007A0000DB03CBC90469946A246AB46F0BDC04653
:1007B00030040020FFFFFF0F10B5124C6368002BC0
:1007C00004D00A21104800F08DFA10BD23000F4A12
:1007D0001021206800F010FB032000F089F90320AD
:1007E00000F060FA0A49032000F0AAF9FFF728FE9A
:1007F000084B9C46032360442375074B80006060D0
:10080000DC60DEE7DC010020400400205904001019
:10081000DD0500104000003430040020F0B55746DC
:100820004E464546DE460400E0B50D0006267642FB
:10083000F71736196F4185B08F4200D987E000D194
:1008400082E000F061F932003B00121A8B41002B6C
:1008500000DC87E0674B99465A68EFF3108B72B65D
:100860001368002BFCD0BFF35F8F4B461B68984684
:100870009B7B9A46002B7BD05B0053444246033B54
:100880009C46414612680093624453788B73002B58
:1008900000D1CB730023494693705370137089685D
:1008A000554A8C46524455491201624416605760BD
:1008B0009160D360009942468C46126862449370FE
:1008C0005370137043465B7B0393002B00D16FE0A2
:1008D00019004046434652465B6880689847039B30
:1008E0009C465A006244033A002854D0009940467E
:1008F0008C46036803999A1863449970117800290B
:1009000000D05970534613704246039B53739A4567
:1009100051D04B465B68BFF35F8F00221A608BF3A8
:100920001088BC46B0460094019500266546344FB9
:10093000344A7B6A9D424CD8B96A414501D29D42F6
:1009400047D0009C019D1BE0864200D879E7002635
:10095000002700F0D9F832003B00121A8B41002B1F
:1009600000DD77E7002B0BD1002A00D072E707E00B
:100970004B465B68BFF35F8F52461A608BF310885B
:100980002000290000F0CCF805B03CBC9046994608
:10099000A246AB46F0BD43461968009B8A18CB18A7
:1009A000514691701978002900D05170039A1A703D
:1009B000434652465A734B463200187D3B0000F0C6
:1009C00005F90028A5D04B465146186800F0DEFA1C
:1009D0009FE71168EFF3108072B60B68002BFCD014
:1009E000BFF35F8F1368BFF35F8F1E6080F31088C3
:1009F00020BF9EE7DC010020FFFFFF0F8D040010E9
:100A0000004005404004002070B5060000F07CF86E
:100A1000FA2204000D00920000233000002101F0B2
:100A200015F9001969418D4205D901204042C117CD
:100A3000FFF7F4FE70BD8D42FAD18442F5D8F7E796
:100A4000F0B5C64600B5EFF305833F22134018000A
:100A50001038EFF3108772B61F4D2A68002AFCD0B9
:100A6000BFF35F8F012211008140884644461B4935
:100A70004C631B4C2678A4463400C440224007D166
:100A8000BFF35F8F2A6087F3108804BC9046F0BDE7
:100A90004C6A1449820051588C420FD3124BD258E1
:100AA00043469E4363461E70BFF35F8F00232B6057
:100AB00087F31088002AE8D09047E6E70B4A9B00AE
:100AC000944663441A681A60BFF35F8F00232B605B
:100AD00087F31088D9E7C046280100D000400540C0
:100AE0005604002044040020AC030020D03F054001
:100AF00010B50100024A0348FFF76AFC10BDC0466A
:100B00003820001054040020044A516A00E0190003
:100B1000906A536A9942FAD17047C0460040054036
:100B2000064A536A9942FCD807D1044B02E05A6A3C
:100B3000914202D19A6A8242F9D37047004005403F
:100B400070B504000D00EFF3108672B61A4A1368F0
:100B5000002BFCD0BFF35F8F002D1BD0200000F0D6
:100B6000CBFD164988420AD0200000F0CDFD0121BE
:100B7000200000F0AFFD0123A340114A1360114B88
:100B8000A400E550BFF35F8F00220B4B1A6086F381
:100B9000108870BD0B4BA200D5500122A2400A491B
:100BA00020000B7893430B70044900F0D7FD00211F
:100BB000200000F08FFDE5E7280100D0410A001079
:100BC00038600540AC03002056040020F0B5D6463E
:100BD0004F4646462E4CC0B5656A00E00D00A66A39
:100BE000616AA942FAD1AB4248D9EFF3108972B6D3
:100BF000284C21680029FCD0BFF35F8F26490126CD
:100C00008C46097886400F00884661463743FFB21C
:100C10000F70041D1E49A400204D4E6362508400D5
:100C200063510D6A002435421BD04D6A00E0250057
:100C30008C6AA2464C6AAC42F9D1AB4224D801D1AD
:100C4000524521D8474521D0114B154A1E625E639B
:100C50001F2318401E3B8340136063464246012415
:100C60001A70BFF35F8F00220A4B1A6089F3108855
:100C700020001CBC90469946A246F0BDAB4201D173
:100C8000B242B2D80124F3E70024EAE70124E8E7FE
:100C900000400540280100D05604002044040020F4
:100CA00080E200E010B5EFF3108472B60A490B68D9
:100CB000002BFCD0BFF35F8F01238340074A084815
:100CC000136202789A430270BFF35F8F00230B60B8
:100CD00084F3108810BDC046280100D000400540B4
:100CE00056040020024B9C46614489000160704715
:100CF0004000003410B50400FFF7A2FB0100200003
:100D0000FFF7F0FFFF23A380BFF35F8F10BDC04646
:100D100010B50400FFF794FB01002000FFF7E2FF8D
:100D200001235B42A380BFF35F8F10BDF8B5474638
:100D3000CE4680B54C0003686418033C1A195678F7
:100D400007000D00002E04D128000CBC90469946E7
:100D5000F8BD71008919033988464344597889469A
:100D6000002159705170002D11D07B68320029008C
:100D7000806898473B68002832D01A1943449D7018
:100D80001178002900D059701670A04600E0350097
:100D90004B46002BD8D049463800FFF7C7FF041E4A
:100DA000D2D002007B682900B868984763001B19FD
:100DB000033B3A68002809D1D3184244947019784B
:100DC000002900D051701D702500BDE74146D318A1
:100DD00051189D700A78002A00D05A700C70B3E741
:100DE00042461C199A18A6701378002B00D0637025
:100DF00015703500CCE7C04610B583600023CCB237
:100E000043730133047342608373C4730068012C1D
:100E100006D9421C0133DBB2137003329C42F9D86D
:100E2000FF2319404B005918002340180338437022
:100E300010BDC046F0B54E4657464546DE46E0B5C5
:100E4000467B03687400A419033C1A19177883B011
:100E500005008946002F1ED1002911D0C07B002833
:100E60002AD041000918591803394E70EE73002F2B
:100E700006D07900C9190339884600214344997086
:100E80000023300053706F7303B03CBC904699460A
:100E9000A246AB46F0BD7900C919033988465918F6
:100EA00048788246002809D149460029E5D0E87BE8
:100EB0000028D6D1EE73DCE7EE73E1E7420052443E
:100EC000033A93465B445A78019200225A704A7062
:100ED0006B6802003900A86898472B68002830D159
:100EE000414650465A4659189A188870107800287A
:100EF00000D048701770D8465746019A002A2DD066
:100F000011002800FFF712FF8246002825D00200BA
:100F100039006B68A8689847534659005144033913
:100F20002B6800281CD04246591898188F700278F8
:100F300094461A196446002C00D04C70514601703A
:100F4000B2E75946424659189A188F70107800280F
:100F500000D0487051461170CFE72B681A19A3E7EB
:100F60005A18984493465046424690705A46127812
:100F7000944660461A19002802D0404664464470E0
:100F800058468846077057468EE7C046F0B5454636
:100F9000DE4657464E46E0B50C0083B00500002300
:100FA000002927D06600477B01683619033E88195F
:100FB000A74233D08278002A1CD053009B18033BF1
:100FC000CB181A78A2421FD142781A7000230278F7
:100FD000837043709146002A33D1EA7B002A66D0A1
:100FE00053009B18C91803394C70EC7300234370ED
:100FF00001236F73180003B03CBC90469946A2468B
:10100000AB46F0BD002AE1D053009B18033BCB1840
:101010005A78A242F6D142785A70D7E70278019204
:10102000002A46D1EA7B002A3FD053009B18C918FA
:1010300003394F70EF7300234370019B6B730123DF
:10104000D8E752004A44033A90468A185778002F4E
:1010500042D1EB7B002B00D029E14F466E7BEC7335
:10106000002393704370002EC2D03A006B683100A9
:10107000A868984773009B19033B2A68002808D08A
:10108000D31842449670197800290CD11F7037008C
:10109000AEE74146D31851189F700A78002A00D055
:1010A0005A700E70A4E75170F0E7EF73C3E7EC736A
:1010B0009CE71400A44652006244033A90468A1802
:1010C0005478A146002C58D1EB7B002B00D0F7E0E0
:1010D000EF7300239370AEE77800C019033882469F
:1010E000514448784B7053706B6883463A004946C8
:1010F000A86898472B68002800D1A2E042469818BB
:10110000524699184A468A700190020000780028D9
:1011100001D0019A487017704F465A46002A28D0CD
:1011200059462800FFF702FE8146002820D0020021
:101130006B683900A86898474B465B004B44033BFB
:101140009C4600286DD042462B6898186246991834
:101150008F7001900078002800D083E04A46019803
:101160000270E97B98196E7B002951D1019A76E7CC
:101170002B6842469A180192F3E76000484403380E
:101180008246514448784B70537061462200834632
:101190006B68A868644698472968002878D052464A
:1011A00043468A18CB1894701878002800D05070E5
:1011B0004A46C2461A705B46002B50D0594628005A
:1011C000FFF7B4FD8046002848D0019C02002100B2
:1011D0006B68A868984743465A004244D31E296862
:1011E000002844D05246CB188A189C7010780028EA
:1011F00000D0587043461370EB7B8819002B00D148
:1012000066E75E00F318C91803394F70EF7360E7A3
:101210004A00944661445B18033B5C70019AEC738E
:101220001EE729684846CA184346CB1898701078BC
:10123000804688194646002E00D05E701770E04642
:1012400007E74146524659189A188F7010780028BF
:1012500000D048704946D04611705EE72968534671
:10126000CA18C9E74A46487001990A7079E7CA184E
:1012700053464046CB1898701078844664468819C7
:10128000002C00D05C70019B1370434601931BE758
:101290005346CA1843464846CB1898701078002821
:1012A00000D05870019B13704B46019383E70326CF
:1012B0007343C91803394C706E7BEC734F46CFE60D
:1012C00003267343C91803394F7001E7304B314A85
:1012D00070B51A60304A314B31491A6010008B6882
:1012E0009843FBD12F4C304DAC4209D20322231D31
:1012F0000335ED1A9543ED1808CC9847AC42FBD165
:1013000000F084F8294A254B1A60254A9368DB01CE
:101310008033FBD14022264B264C274D9A675A67D3
:101320001A67DA66AC4215D2230007350833ED1A86
:10133000393A9543ED1804E00834FFF7E9FCAC4274
:1013400008D063792000002BF6D10834FFF7D2FCD7
:10135000AC42F6D1194D1A4CC022A168280000F009
:10136000E1FCA560FFF75EF800F030FBFFF724FA20
:10137000144D154CA54209D203222B1D0334E41A47
:101380009443E41808CD9847A542FBD170BDC046F0
:1013900000E00040BFCDFBFEFE7F3C0000F00040BF
:1013A00000C000407802002088020020FFFFFF01FB
:1013B00000F00140700200207802002000000020B0
:1013C00000ED00E0880200208C02002000BEFDE756
:1013D0000FB400B5084883B000F048FD049B002B13
:1013E00007D005A91800019100F080FB034800F028
:1013F0003DFD00BEFDE7C0466820001078200010CB
:1014000010B50148FFF7E4FF5C20001030B50C2058
:1014100083B000F049FBFEF7FDFF00280ED0964B8D
:10142000964A1A605A609A60DA601A615A619A6143
:10143000DA611A62924A5A6203B030BD914CA067D9
:1014400000F03AFB0122904B1A60636C012BFCD137
:1014500003228E4B1A608B4A936B012BFCD1022422
:1014600005338B4A01218B48009400F0CBFA052309
:10147000894A00940121894800F0C4FA884B5A68CF
:10148000FF2A02D8802252005A6080227A4C7F4B79
:1014900021691201824D1A60002900D0E5E0E021A7
:1014A0007F4B02201A681140802252012A431160AA
:1014B0001968484003210140116004219A681142D3
:1014C000FCD08022802192012A43090111608022F0
:1014D00052005A60734B2361734B5968FF2900D83F
:1014E000C1E00322684B70481A60012103009A682A
:1014F0001142FCD0E0251A681540802252010243B7
:1015000015601B684B400321194011600221664A97
:1015100093681942FCD0802380219B010343090179
:1015200019608021614B490051606361604B5A68CA
:10153000FF2A00D8596080225E4BE16912015C4DA0
:101540001A60002905D0606900F01EFB01300138E7
:10155000FDD1E02256490B681A4080235B012B43E2
:101560001A60802380229B012B4312011A60802283
:10157000424B52004A60E3614F4B5968FF2900D843
:101580005A6080224D4B216A12014B4D1A6000298E
:1015900005D0606900F0F8FA01300138FDD1E02291
:1015A00045490B681A4080235B012B431A60802356
:1015B00080229B012B4312011A6080235B004B6049
:1015C0002E4B3F4A23623F4B5968914201D801326A
:1015D0005A6080223C4B616A12013A4D1A60002920
:1015E00005D0606900F0D0FA01300138FDD1E02269
:1015F00034490B681A4080235B012B431A60802317
:1016000080229B012B4312011A608023DB024B6076
:101610001B4B63622D4B5A68FF2A02D8802252006E
:101620005A6080222A4BA1691201284D1A600029B4
:1016300005D0606900F0A8FA01300138FDD1E02240
:1016400022490B681A4080235B012B431A608023D8
:1016500080229B012B4312011A6080235B004B60A8
:10166000124BA361E8E65A603BE7606900F08CFA30
:1016700001300138FDD112E7BC030020006CDC0210
:101680001BB70000008000403CB0004030B000407C
:10169000002F68590080024000389C1C00C00240A6
:1016A00030800040001BB7003C8000404059730769
:1016B0005480004054B000406080004060B0004062
:1016C000FFFF03006C8000406CB000404880004089
:1016D00048B0004001238340002902D1034A13602F
:1016E0007047034A1360034A1360F9E780E100E0A2
:1016F00080E200E000E100E0024B10309B688000D7
:10170000C058704700ED00E070B50D00EFF3108693
:1017100072B60F4A1368002BFCD0BFF35F8F0D4BDE
:1017200010309B6884001B590B4A934203D09D42A2
:1017300001D0FFF765FE074B9B681D51BFF35F8F1C
:10174000BFF35F8F0022024B1A6086F3108870BDD2
:10175000240100D000ED00E0CD010010F0B54546B9
:10176000DE4657464E46E0B50D0083B0EFF3108AD3
:1017700072B65C4A1368002BFCD0BFF35F8F102257
:10178000914681444A46584B96009B689C59574B5A
:1017900098469C4205D0AC424FD0554FE31B2F2BAF
:1017A00012D9514B9B689C51BFF35F8FBFF35F8F82
:1017B00000224C4B1A608AF3108803B03CBC904660
:1017C0009946A246AB46F0BD012383409B465A464C
:1017D000484B1B681A4000925A46474B1A60BFF3A9
:1017E0005F8FFEF740FD0190002803D0814501D0B6
:1017F000FFF706FE0123220006209A431300DB1B9D
:101800005B4144495943090D93688C4610569D42EB
:101810000AD151E043001B1806209B00FB18996871
:101820001856A94211D01A000028F3DA009B002BA9
:1018300005D15A46304B1A60B3E71C00B1E75A464F
:101840002E4B1A602B4B1A60ABE7002825DB4200B9
:10185000111889007D188846A9689960E979D971BD
:10186000062169569971A9797F2913D8AD88F91A8B
:101870006D052D1545444919E0250905490D2D0231
:101880002943998012181E4B9200BF181A781870BD
:10189000BA71CBE7BD210902F3E70199002913D101
:1018A000002A0FD0FF20907116489080144A1078BB
:1018B000987163461370B9E713000028C7DA019ADC
:1018C000002A01D14446F1E70F4A1049D21A083ADA
:1018D0005002400D014399800D4952080A43DA80B5
:1018E000A4E7C046240100D000ED00E0CD010010C7
:1018F0000402002000E100E080E100E080E200E07E
:101900005504002000BDFFFF3E02002000F0FFFF55
:1019100000F8FFFFAAAA0000F8B50125040005435E
:10192000FEF7A1FCEFF3108672B6214A1368002B74
:10193000FCD0BFF35F8F1F4A2100891A4941224B17
:101940004B431B0D1C4980008F685BB23F58AF4270
:101950001CD006215156994226D012215156994247
:1019600024D01E215156994214D02A2151560320C9
:10197000994210D0114A11781370A171BFF35F8F93
:1019800000220B4B1A6086F31088F8BD8A680C4958
:101990001150EFE702204100091889005218FF2179
:1019A000917108499180E5E70020F4E70120F2E712
:1019B000240100D00402002000ED00E055040020C6
:1019C000CD01001000BDFFFFAAAA0000F0B5002263
:1019D0000324FF27802620003D00094B11009C4670
:1019E0001040C0008540A14361440B680132AB4305
:1019F000350085402B430B60202AECD1F0BDC0465A
:101A000000E400E0F8B504000C201E0017000D00F3
:101A100000F0BAF84201121A9101891AC900091896
:101A20008901380000F0B0F8069B36041B031E4302
:101A30002368002B21DB184BE21853425A418023C4
:101A40005B019C4652421A40144B62441A60144B8C
:101A50001A60144B170099688F43FBD1C023221DD5
:101A60009B01134321222560A0601A602268002A8E
:101A7000FCDA0822E6601A60F8BD3F2322681340B2
:101A8000AB42D8D1A3681B051B0D8342D3D1E368B9
:101A9000002ED0D1F0E7C0460040FDBF00E000407E
:101AA00000F0004000C0004080239B001843014B21
:101AB000D862704700800540AA23064A1B011360C4
:101AC0002F230549D360054B19605368002BFCDABE
:101AD0007047C0460040024000B0FA00006002407B
:101AE00010B5002801D000F069F910BD10B5094A01
:101AF00084B01468002C09D00122009103005242E6
:101B000003A90548A047012004B010BD00F0AEF9BC
:101B10000020F9E72C040020E11A001001480421FC
:101B2000014B1847500200204D1B0010142310B524
:101B30000100188804331B88984710BD162310B580
:101B40000100188802331B88984710BDF0B5C646BF
:101B500000B5002916D01423040001259846182743
:101B6000890046184346216818883B88984701C475
:101B7000431E984140420540A642F3D1280004BCD0
:101B80009046F0BD0125F9E7114A936F9B0813D2E7
:101B900010665166002905D0FFE7FFE7FFE7516FA8
:101BA000106F704704B5002801D00020C04300F03A
:101BB0002BFA002104BDC046F0B5146E556E576F68
:101BC000166FFFF7E5FF1466556657671667F0BD99
:101BD000000000D0132370B51C78012C0CD015DD4B
:101BE0000C48FFF7ABFF0C4D01008022280000F0ED
:101BF00099F8022C0BD070BD074D084A29002B0024
:101C0000803104C38B42FCD1AA64F4E7024D034A3D
:101C1000AA64F0E75344000058040020211C00107F
:101C200007B5604601880A0A0230DF2AFAD1C9B234
:101C3000820804D3028840880004104300E0006852
:101C4000014A5050039007BD5804002051434343BC
:101C5000C9188C46110C83B24B4310B4040C614379
:101C600092B280B2504362431C041B0C001910BC9A
:101C700059411304120CC0185141614470470000CF
:101C8000132310B51C781348FFF758FF012C0BD015
:101C900004DD01008022104800F044F80F48FFF7EF
:101CA00045FF0F4B186010BD0B4C01005422200063
:101CB00000F038F80B4B6365A365E3652366636644
:101CC000A366E36623676367A367E3672362E36151
:101CD000E4E7C04653460000580500204C3300009E
:101CE00058060020E91C001007B5604601880A0A62
:101CF0000230DF2AFAD1C9B2820804D302884088B0
:101D00000004104300E00068014A5050039007BDF2
:101D10005805002001480421014B184760020020AB
:101D20004D1B0010014B5B6818470000600200204B
:101D3000F0B5C646070000B50C00151E30DD0A7868
:101D4000037C00200A2A2ED00121012D1BD01A4B22
:101D5000984602E03100AE4215D04B1EE25C635C57
:101D60004E1C0A2BF6D10D2AF4D03B68884203DAC8
:101D7000091A201898473B680221404698473000CE
:101D80003100AE42E9D1854203DD291A3B682018B3
:101D900098476419013C23780D3B5A4253413B74E8
:101DA00004BC9046F0BD002BCED1034802213B6815
:101DB00098470120C8E7C046DC200010F0B5CE46A9
:101DC000474680B583B06B46DE1CD02330701B06BF
:101DD0001C68234B804601A91800994600F01CF9A5
:101DE000071E2ED1019B64B29C4225D0484600F0CC
:101DF0001BF91C4B01271C68002C26D01A4D02E051
:101E0000E468002C10D02368002BF9D02A68002A3F
:101E100001D0A242F4D1627C002A1AD10121300003
:101E20009847E468002CEED1002F0ED1404603B055
:101E30000CBC90469946F0BD0A4B1C68002CDDD1C5
:101E4000F4E7084B1C68002CD8D1484600F0D4F8C1
:101E5000ECE7012231002000FFF76AFFD0E7C0461F
:101E6000700200202404002028040020F0B5DE4683
:101E7000454657464E46E0B583B0804600F086F8AA
:101E8000D02301AD1B06070029003C481C6800F068
:101E9000C3F8834600284ED1019B64B29C4244D0D3
:101EA000364800F0C1F8364B9A461C6801239B4621
:101EB000002C45D00A2399463B00324E47469846AF
:101EC00002E0E468002C19D02368002BF9D03268B6
:101ED000002A01D0A242F4D1627C002A40D14146BE
:101EE000380098474B462B70627C2368002A2BD120
:101EF000012128009847E468002CE5D15B4647465D
:101F0000002B1DD153461C68002C06D06368002BA3
:101F10002CD09847E468002CF8D1380003B03CBCC2
:101F200090469946A246AB46F0BD154B1C689A46B2
:101F3000002CBFD1F1E7124B1C689A46002CB9D196
:101F40000E4800F059F8DDE7227C002A12D1022168
:101F50000D4898472B780D3B5A4253412374B0E704
:101F6000424639002000FFF7E3FEBBE7E468002C9F
:101F7000CCD1D2E7012128009847EBE7700200207E
:101F80002404002028040020DC20001010B50400E8
:101F900083070AD00378002B23D0032202E00378C2
:101FA000002B1CD001301042F9D102680E4B0F49B2
:101FB000D31893430B420FD1043002680A4BD31855
:101FC00093430B4208D104300268074BD318934364
:101FD0000B42F1D000E001300378002BFBD1001B55
:101FE00010BD0020FCE7C046FFFEFEFE8080808022
:101FF000F8B5C0460000000001B40248844601BCA8
:10200000604700BF7D01002001B40248844601BC46
:10201000604700BFD501002001B40248844601BCDE
:10202000604700BF2101002001B40248844601BC82
:08203000604700BFC100002061
:10203800486172647761726520616C61726D2025F8
:102048006420616C726561647920636C61696D6597
:1020580064000000486172642061737365727400E3
:102068000A2A2A2A2050414E4943202A2A2A0A00AD
:102078000A00000006005250BBFF3CB6C02000100A
:1020880006005250E182887FA820001006005250B6
:10209800D3F07542A020001052656C65617365002D
:1020A800626F6F74325F77323571303830000000FC
:1020B800312E322E300000007069636F000000007E
:1020C800426C696E6B0000004A756E20323820320F
:0820D800303231000D0A000056
:1020E000B4020010A80200109C0200107C20001016
:0C20F000900200108820001094200010C6
:1020FC0070B5D024002524060268EFF3108172B667
:10210C001368002BFCD0BFF35F8F04230022C3564F
:10211C00A2565E1C16D093420CD14379012B09D9DF
:10212C00013B43710368BFF35F8F00221A6081F398
:10213C00108870BD0368BFF35F8F1D6081F310883A
:10214C0020BFD9E743790271002BEBD0E8E7C046FA
:10215C00030030B50068EFF3108472B60268002AF1
:10216C00FCD0BFF35F8FD022002012061056042241
:10217C009A56551C14D082420BD0002913D0002043
:10218C000A601B68BFF35F8F00221A6084F310880B
:10219C0030BD58790128F0D9013858710120F0E789
:1021AC0018710120EDE70020EBE7C0460268EFF361
:1021BC00108172B61368002BFCD0BFF35F8F43798C
:1021CC00002B0CD00133DBB243710268FF2B10D013
:1021DC00BFF35F8F0023136081F310887047FF22D9
:1021EC0002710268BFF35F8F136081F3108840BFE8
:1021FC00F4E70371BFF35F8F0023136081F3108842
:10220C0040BFEBE77047C04610000000F40100200F
:10221C000000000090020020E403002000000000F9
:10222C0000000000F403002000000000000000008B
:10223C001000000000000000000001000000000081
:10224C000000000000000200000000000000000080
:10225C000000030000000000000000000000FF0070
:10226C000000000000B5486801318E4600477046FA
:10227C0009380149884700BD1919001000000000F9
:10228C00503300004C330000543300005233000034
:10229C004D5300004D430000533400004334000004
:1022AC000000000000000000151D00101D1B001098
:0C22BC00D51B0010811C0010390300101D
:04000005100001E9FD
:00000001FF
